:100000000C94F2000C940F010C940F010C94F3016A
:100010000C940F010C940F010C940F010C940F0120
:100020000C940F010C940F010C949C040C94D604B6
:100030000C940F010C940F010C940F010C940F0100
:100040000C940F010C9481010C940F010C940F017E
:100050000C940F010C940F010C940F010C940F01E0
:100060000C940F010C940F010C940F010C940F01D0
:100070000C940F010C940F010C940F010C940F01C0
:100080000C944F020C940F010C940F010C940F016F
:100090000C940F010C940F010C940F010C940F01A0
:1000A0000C940F010C940F010C940F013D043A04C1
:1000B0003704340431042E042B04280425042204BC
:1000C0001F041C0419041604130410040D040A046C
:1000D000070404040104FE03FB03F803F503F20321
:1000E000EF03EC03E903E603E303E003DD03DA03D4
:1000F000D703D403D103CE03CB03C803C503C20384
:10010000BF03BC03B903B603B303B003AD03AA0333
:10011000A703A403A1039E039B03980395039203E3
:100120008F038C0389038603830380037D030A0006
:100130000001000064011200020000760143000388
:100140000000B9010401030904BD011202030904FE
:10015000D1010603030904D901080001C11201807D
:10016000360181361201000202000010C0167A0426
:1001700000010102030109024300020100C032092B
:100180000400000102020100052400100105240101
:10019000010104240206052406000107058203105C
:1001A000004009040100020A0000000705030240A4
:1001B0000000070584024000000403090412034AFA
:1001C000002E0020004600690065006E00650000FA
:1001D0000006034D003200000008033400310030F7
:1001E0000000000011241FBECFEFDAE0DEBFCDBF5C
:1001F00011E0A0E0B1E0EAEEF6E102C005900D9258
:10020000A834B107D9F711E0A8E4B1E001C01D920C
:10021000A535B107E1F70E94DD080C94730B0C942F
:100220000000E1E9F0E080818B7F80838081826043
:10023000808380818160808380818F7E80838081C4
:1002400088608083E0E9F0E080818D7F8083808119
:100250008E7F80830895E1E8F0E080818B7F80834A
:1002600080818D7F808380818160808380818061B7
:100270008083808188608083E0E8F0E08081826014
:10028000808380818160808380818062808380819F
:100290008F7E80830895E1E8F0E080818B7F80830A
:1002A00080818D7F8083808181608083E1E9F0E0BF
:1002B00080818B7F80838081826080838081816068
:1002C00080830895E0E8F0E080818F7D80838081E5
:1002D0008F7E8083E1E8F0E080818E7F8083808163
:1002E0008D7F808380818B7F8083E1E9F0E0808156
:1002F0008E7F808380818D7F808380818B7F8083D0
:1003000008951F920F920FB60F921124CF92DF9291
:10031000EF92FF922F933F934F935F936F937F934F
:100320008F939F93AF93BF93CF93DF93EF93FF93FD
:1003300080914B0190914C0180329105C8F5E0917C
:100340004B01F0914C01C0918800D0918900EE0FD3
:10035000FF1FE050FF4F60817181882777FD8095F6
:10036000982F0E949B096B017C01BE0180E090E008
:100370000E9499099B01AC01C701B6010E94270A9E
:1003800020E030E04AE754E40E9400090E94680936
:10039000DC01CB0190938B0080938A0080914B010C
:1003A00090914C01019690934C0180934B0104C0B5
:1003B00010924C0110924B01FF91EF91DF91CF9180
:1003C000BF91AF919F918F917F916F915F914F916D
:1003D0003F912F91FF90EF90DF90CF900F900FBE45
:1003E0000F901F9018951F920F920FB60F92112425
:1003F0002F933F934F935F936F937F938F939F932D
:10040000AF93BF93EF93FF936E9A8EB190E48927D9
:100410008EB98DE491E063E00E949E070E944B013B
:1004200080914D0190914E01909349018093480134
:1004300080914F018093540180914801909149012E
:100440006AE070E00E948A0A882777FD8095982FDD
:100450000E949B099B01AC0160E074E284EF98E488
:100460000E9400090E946809DC01CB019093890079
:10047000809388008EE291E00E943706FF91EF9111
:10048000BF91AF919F918F917F916F915F914F91AC
:100490003F912F910F900FBE0F901F9018951F92B4
:1004A0000F920FB60F9211248F939F9390914A0150
:1004B00080915401891738F46A9A8EB194E08927A3
:1004C0008EB92E9805C080914A018F5F80934A01B2
:1004D0009F918F910F900FBE0F901F901895809154
:1004E000E80080FFFCCF089581E08093D70080EA88
:1004F0008093D80082E189BD09B400FEFDCF80E978
:100500008093D8001092E000109251011092520195
:100510008CE08093E20078940895809151010895D1
:100520009FB7F89480915101882339F083E080933C
:10053000E9008091E80085FD03C09FBF8FEF08951B
:100540008091F1002091E80025FD03C02BE6209367
:10055000E8009FBF08959FB7F894809151018823C8
:1005600031F083E08093E9008091F20001C080E0E7
:100570009FBF089580915101882371F08FB7F8943F
:1005800093E09093E9009BE602C09093E8002091ED
:10059000E80025FDFACF8FBF08959091510199236E
:1005A000D1F19FB7F89424E02093E9002091530102
:1005B000222341F02091E80025FD02C09FBF2BC0FF
:1005C000109253012091E400275E34E04091E8004E
:1005D00045FD12C09FBF9091E400921721F481E085
:1005E0008093530118C0909151019923B1F09FB7A6
:1005F000F8943093E900EACF8093F1008091E8000D
:1006000085FD03C08AE38093E80085E08093500174
:100610009FBF80E008958FEF08958FEF0895909128
:1006200051019923D9F09FB7F89424E02093E90071
:100630002091E80025FD03C09FBF8FEF08958093B0
:10064000F1008091E80085FD03C08AE38093E80013
:1006500085E0809350019FBF80E008958FEF08955B
:10066000CF93DC0180915101882309F41AC12FB77F
:10067000F89484E08093E90080915301882309F481
:1006800005C18091E80085FD02C02FBF0AC110920C
:100690005301FCC08091E400875E9091E80095FDD5
:1006A00013C02FBF9091E400981721F481E080934C
:1006B0005301F7C090915101992309F4F2C02FB76B
:1006C000F894C093E900E9CF8091F200E52FE81B90
:1006D0008E2F90E06817790708F4E62F6E1B7109DA
:1006E000F0E0E134F10508F0C5C0EA5AFF4FEE0F23
:1006F000FF1F0590F491E02D09948D918093F100F6
:100700008D918093F1008D918093F1008D91809374
:10071000F1008D918093F1008D918093F1008D9186
:100720008093F1008D918093F1008D918093F10081
:100730008D918093F1008D918093F1008D91809344
:10074000F1008D918093F1008D918093F1008D9156
:100750008093F1008D918093F1008D918093F10051
:100760008D918093F1008D918093F1008D91809314
:10077000F1008D918093F1008D918093F1008D9126
:100780008093F1008D918093F1008D918093F10021
:100790008D918093F1008D918093F1008D918093E4
:1007A000F1008D918093F1008D918093F1008D91F6
:1007B0008093F1008D918093F1008D918093F100F1
:1007C0008D918093F1008D918093F1008D918093B4
:1007D000F1008D918093F1008D918093F1008D91C6
:1007E0008093F1008D918093F1008D918093F100C1
:1007F0008D918093F1008D918093F1008D91809384
:10080000F1008D918093F1008D918093F1008D9195
:100810008093F1008D918093F1008D918093F10090
:100820008D918093F1008D918093F1008D91809353
:10083000F1008D918093F1008D918093F1008D9165
:100840008093F1008D918093F1008D918093F10060
:100850008D918093F1008D918093F1008D91809323
:10086000F1008D918093F1008D918093F1008D9135
:100870008093F1008D918093F1008091E80085FDD7
:1008800002C04093E8003093500104C0C4E050E43B
:100890004AE335E06115710509F0FCCE2FBF80E019
:1008A00001C08FEFCF9108958FB7F89490915001C8
:1008B000992341F094E09093E9009AE39093E80043
:1008C000109250018FBF0895809144010895809146
:1008D000450108958091460108958091520108953F
:1008E0009FB7F89420915101222339F022E0209300
:1008F000E9003091E80035FD03C09FBF8FEF0895F8
:1009000031EA3093F10030E23093F1001092F100BF
:100910001092F1001092F1001092F1002093F1007A
:100920001092F1008093F1001092F1008AE380931D
:10093000E8009FBF80E008951F920F920FB60F92BC
:1009400011248F939F938091E1001092E10083FF27
:1009500011C01092E90091E09093EB001092EC002E
:1009600092E19093ED0098E09093F0001092510185
:100970001092520182FF13C080915101882379F0B7
:1009800080915001882359F0815080935001882331
:1009900031F484E08093E9008AE38093E8009F913A
:1009A0008F910F900FBE0F901F9018951F920F926E
:1009B0000FB60F921124EF92FF920F931F932F9374
:1009C0003F934F935F936F937F938F939F93AF93D7
:1009D000BF93EF93FF93CF93DF930F92CDB7DEB723
:1009E0001092E9008091E80083FF26C12091F10078
:1009F0003091F100E090F100FF244091F100942F3C
:100A000080E0E82AF92A0091F10010E04091F1001D
:100A1000942F80E0082B192B6091F100A091F10038
:100A200082EF8093E800363009F051C046E020E3C1
:100A300031E0F901859194918E159F0539F4F90102
:100A40003296859194918017910729F0295F3F4F45
:100A5000415079F7F1C0F901349685919491AC0138
:100A60002A5F3F4FF901249170E09A2F80E0682BB4
:100A7000792B6F3F710519F010F06FEF70E062177E
:100A800008F4262FAEEF8091E80090E0BC0165707D
:100A9000707061157105B9F382FDD1C0322F21311B
:100AA00008F030E1CA01632F06C0FC010196E49111
:100AB000E093F10061506623C1F7430F511D231BE2
:100AC000A093E8002223F9F63031E9F2B8C03530BE
:100AD00051F48EEF8093E8000E946F028E2D8068A3
:100AE0008093E300ACC0393069F5222309F0A4C03B
:100AF000E092510110925201109250018EEF8093BA
:100B0000E80041E08AE591E001C0C9014093E900B5
:100B10009C012F5F3F4FFC0154915093EB005523F4
:100B200061F0F90124912093EC009C012D5F3F4F6F
:100B30000296FC0184918093ED004F5F453029F7C8
:100B40008EE175C0383051F4203809F075C00E942C
:100B50006F02809151018093F10046C0313271F4EF
:100B6000213A09F069C00E946F0287E0E0E4F1E0F9
:100B700091919093F1008150D9F736C0303299F4B9
:100B8000213209F059C08091E80082FFFCCF87E054
:100B9000E0E4F1E09091F10091938150D9F78BEF6F
:100BA0008093E80021C0323241F4213209F044C080
:100BB000E09252010E946F0217C03323C9F42983C7
:100BC0000E946F022981223851F40093E90090912C
:100BD000EB0081E095FF80E01092E90001C080E029
:100BE0008093F1001092F1008EEF8093E80027C00F
:100BF000313011F0333001F52230F1F4E114F10419
:100C0000D9F40F77802F81508430B0F48EEF809329
:100C1000E8000093E900333079F089E18093EB003C
:100C200081E090E002C0880F991F0A95E2F7809357
:100C3000EA001092EA0003C081E28093EB000F907B
:100C4000DF91CF91FF91EF91BF91AF919F918F91E4
:100C50007F916F915F914F913F912F911F910F91D4
:100C6000FF90EF900F900FBE0F901F9018951F935D
:100C7000CF93DF93EC01FE0121961491112349F0EB
:100C80001A3019F48DE00E94CD02812F0E94CD020E
:100C9000F2CFDF91CF911F9108958A3010F490E345
:100CA00001C097E3890F0E94CD020895CF93C82F0A
:100CB00082958F700E944D068C2F8F700E944D067A
:100CC000CF910895CF93C82F892F0E9456068C2F5D
:100CD0000E945606CF9108950E9456060895EF92FD
:100CE000FF920F931F93CF93DF93CDB7DEB7279774
:100CF0000FB6F894DEBF0FBECDBF8E010F5F1F4F42
:100D000027E0F80111922A95E9F7B8014AE050E08E
:100D10000E94B10A780100E010E0F70181917F01A3
:100D2000882311F00E94CD020F5F1F4F073011057D
:100D3000A1F727960FB6F894DEBF0FBECDBFDF91A7
:100D4000CF911F910F91FF90EF900895EF92FF9236
:100D50000F931F93CF93DF9300D000D000D0CDB777
:100D6000DEB78E010F5F1F4F26E0F80111922A9522
:100D7000E9F7B8014AE050E00E942B0B780100E04F
:100D800010E0F70181917F01882311F00E94CD02CC
:100D90000F5F1F4F05301105A1F726960FB6F89487
:100DA000DEBF0FBECDBFDF91CF911F910F91FF909E
:100DB000EF900895EF92FF920F931F93CF93DF93DD
:100DC000CDB7DEB72B970FB6F894DEBF0FBECDBF01
:100DD0008E010F5F1F4F2BE0F80111922A95E9F762
:100DE000A8012AE030E00E94D20A78018E01045F57
:100DF0001F4FF70181917F01882311F00E94CD02DE
:100E0000E016F106B1F72B960FB6F894DEBF0FBED1
:100E1000CDBFDF91CF911F910F91FF90EF9008957B
:100E2000EF92FF920F931F93CF93DF93CDB7DEB76F
:100E30002B970FB6F894DEBF0FBECDBF8E010F5FAC
:100E40001F4F2BE0F80111922A95E9F7A8012AE03B
:100E500030E00E94060B78018E01055F1F4FF701FD
:100E600081917F01882311F00E94CD02E016F106E6
:100E7000B1F72B960FB6F894DEBF0FBECDBFDF9152
:100E8000CF911F910F91FF90EF900895CF93DF9333
:100E900000D00F92CDB7DEB74B836A8389830E945F
:100EA000390894EA9093BC0089816A814B819091C2
:100EB000BC0097FFFCCF90E59093BB0094E8909323
:100EC000BC009091BC0097FFFCCF9091B900987F37
:100ED000903229F484E98093BC0080E029C091E03D
:100EE0009093BB0094E89093BC009091BC0097FF56
:100EF000FCCF8093BB0084E88093BC008091BC0051
:100F000087FFFCCF6093BB0084E88093BC00809196
:100F1000BC0087FFFCCF4093BB0084E88093BC00FB
:100F20008091BC0087FFFCCF84E98093BC0081E006
:100F30000F900F900F90DF91CF9108959C0184EA5C
:100F40008093BC008091BC0087FFFCCF81E580933B
:100F5000BB0084E88093BC008091BC0087FFFCCF7D
:100F60008091B900887F8834A9F084EC8093BC001C
:100F70008091BC0087FFFCCF8091BB00861751F4A5
:100F8000F90180E090E0772767FD7095615070402F
:100F900044EC0FC084E98093BC0080E00895409346
:100FA000BC005091BC0057FFFCCF5091BB00519347
:100FB0000196861797079CF344E84093BC00409144
:100FC000BC0047FFFCCF4091BB00820F931FFC0188
:100FD000408384E98093BC0081E00895F89494EA0A
:100FE0009093BC009091BC0097FFFCCF90E590934C
:100FF000BB0094E89093BC009091BC0097FFFCCF9D
:101000009091B900987F903231F484E98093BC00CC
:10101000789480E0089593E09093BB0094E89093D7
:10102000BC009091BC0097FFFCCF8093BB0084E88C
:101030008093BC008091BC0087FFFCCFFB0180E067
:1010400090E0552747FD509524E80AC03191309330
:10105000BB002093BC003091BC0037FFFCCF019651
:10106000841795079CF384E98093BC00789481E011
:101070000895589A599A5A9A8CE08093B800E9E6F4
:10108000F0E080818062808380818F7E8083EA9A15
:101090007894089584E88093BC008091BC0087FF19
:1010A000FCCF8091BB00089584E98093BC00089533
:1010B00020E030E08091BC0087FD06C02F5F3F4FED
:1010C00083E0293E3807B1F781E093E0283E3907F5
:1010D00009F480E008958093BB0084E88093BC000D
:1010E0000E945808882321F08091B900887F0895D4
:1010F00080E008951F93CF93DF930F92CDB7DEB7B3
:10110000182F84EA8093BC0069830E945808698183
:10111000882371F0812F880F662331F08F5F0E9442
:101120006B08883451F404C00E946B08803229F4A3
:1011300084E98093BC0080E001C081E00F90DF91E2
:10114000CF911F910895CF93DF93C62FD42F60E0E6
:101150000E947A08882379F08C2F0E946B088823DC
:1011600051F08D2F0E946B08882329F084E9809329
:10117000BC0081E001C080E0DF91CF910895CF9362
:10118000DF93C82FD62F60E00E947A08882389F069
:101190008D2F0E946B08882361F084E98093BC0046
:1011A0008C2F61E00E947A08882319F00E944A0877
:1011B00001C080E0DF91CF9108950E94740278947D
:1011C00080E88093610010926100809171008260DC
:1011D0008093710080916F00826080936F0081E046
:1011E00068E143E00E944607269A84EC99E09093D8
:1011F0009900809398000E942B010E941101FFCF5B
:101200000CD0EBC0E3D040F0DAD030F021F45F3FF7
:1012100019F0CCC0511115C1CFC0F0D098F399236B
:10122000C9F35523B1F3951B550BBB27AA276217AA
:101230007307840738F09F5F5F4F220F331F441FEF
:10124000AA1FA9F333D00E2E3AF0E0E830D0915027
:101250005040E695001CCAF729D0FE2F27D0660F14
:10126000771F881FBB1F261737074807AB07B0E853
:1012700009F0BB0B802DBF01FF2793585F4F2AF069
:101280009E3F510568F092C0DCC05F3FECF3983E92
:10129000DCF3869577956795B795F7959F5FC9F7C6
:1012A000880F911D9695879597F90895E1E0660F4F
:1012B000771F881FBB1F621773078407BA0720F0C8
:1012C000621B730B840BBA0BEE1F88F7E095089531
:1012D00004D06894B111B5C0089598D088F09F5794
:1012E00090F0B92F9927B751A0F0D1F0660F771F72
:1012F000881F991F1AF0BA95C9F712C0B13081F052
:101300009FD0B1E008959CC0672F782F8827B85FE1
:1013100039F0B93FCCF3869577956795B395D9F7B2
:101320003EF490958095709561957F4F8F4F9F4FBC
:101330000895E89409C097FB3EF4909580957095C8
:1013400061957F4F8F4F9F4F9923A9F0F92F96E911
:10135000BB279395F695879577956795B795F11186
:10136000F8CFFAF4BB0F11F460FF1BC06F5F7F4F23
:101370008F4F9F4F16C0882311F096E911C0772335
:1013800021F09EE8872F762F05C0662371F096E83E
:10139000862F70E060E02AF09A95660F771F881F0D
:1013A000DAF7880F9695879597F9089597F99F67CB
:1013B00080E870E060E008959FEF80EC08950024DD
:1013C0000A941616170618060906089500240A94AA
:1013D00012161306140605060895092E0394000C30
:1013E00011F4882352F0BB0F40F4BF2B11F460FFBF
:1013F00004C06F5F7F4F8F4F9F4F089557FD9058E8
:10140000440F551F59F05F3F71F04795880F97FBC8
:10141000991F61F09F3F79F0879508951216130682
:101420001406551FF2CF4695F1DF08C016161706B1
:101430001806991FF1CF86957105610508940895E6
:10144000E894BB2766277727CB0197F908950BD03F
:10145000C4CFB5DF28F0BADF18F0952309F0A6CF86
:10146000ABCF1124EECFCADFA0F3959FD1F3950F38
:1014700050E0551F629FF001729FBB27F00DB11D18
:10148000639FAA27F00DB11DAA1F649F6627B00DA8
:10149000A11D661F829F2227B00DA11D621F739F91
:1014A000B00DA11D621F839FA00D611D221F749F9F
:1014B0003327A00D611D231F849F600D211D822FE6
:1014C000762F6A2F11249F5750408AF0E1F088232D
:1014D0004AF0EE0FFF1FBB1F661F771F881F91503A
:1014E0005040A9F79E3F510570F060CFAACF5F3FF3
:1014F000ECF3983EDCF3869577956795B795F7956D
:10150000E7959F5FC1F7FE2B880F911D96958795F4
:1015100097F9089597FB092E07260AD077FD04D086
:101520000CD006D000201AF4709561957F4F089575
:10153000F6F7909581959F4F0895AA1BBB1B51E12B
:1015400007C0AA1FBB1FA617B70710F0A61BB70B33
:10155000881F991F5A95A9F780959095BC01CD01D8
:101560000895FB019F01E8944230C4F04532B4F481
:101570004A3029F497FB1EF4909581959F4F642F74
:1015800077270E949D0A805D8A330CF0895D8193E4
:10159000CB010097A1F716F45DE251931082C901C7
:1015A0000C94410BFA01CF93FF93EF93223044F157
:1015B000253234F5C22FE894CA3049F497FB3EF443
:1015C00090958095709561957F4F8F4F9F4F2C2FF1
:1015D000332744275527FF93EF930E94510BEF9138
:1015E000FF91605D6A330CF0695D6193B901CA01D6
:1015F000605070408040904051F716F4CDE2C193A6
:1016000010828F919F91CF910C94410BFA01CF934F
:10161000FF93EF932230CCF02532BCF4C22F2C2F55
:10162000332744275527FF93EF930E94510BEF91E7
:10163000FF91605D6A330CF0695D6193B901CA0185
:10164000605070408040904051F710828F919F9180
:10165000CF910C94410BFB019F01423074F0453255
:1016600064F4642F77270E949D0A805D8A330CF012
:10167000895D8193CB010097A1F71082C9010C9479
:10168000410BDC01FC01672F71917723E1F7329761
:1016900004C07C916D9370836291AE17BF07C8F34D
:1016A0000895A1E21A2EAA1BBB1BFD010DC0AA1FA3
:1016B000BB1FEE1FFF1FA217B307E407F50720F0BB
:1016C000A21BB30BE40BF50B661F771F881F991F36
:1016D0001A9469F760957095809590959B01AC017F
:0A16E000BD01CF010895F894FFCF7B
:1016EA00F4015602B3020A0356039403C203DE034B
:1016FA00E703DE03C203940356030A03B302560246
:10170A00F40192013501DE009200540026000A001D
:10171A0001000A00260054009200DE003501920101
:08172A0000E1000000000800CE
:00000001FF
